{
  "_format": "hh-sol-artifact-1",
  "contractName": "WavePortal",
  "sourceName": "contracts/wavePortal.sol",
  "abi": [
    {
      "inputs": [],
      "stateMutability": "nonpayable",
      "type": "constructor"
    },
    {
      "anonymous": false,
      "inputs": [
        {
          "indexed": true,
          "internalType": "address",
          "name": "from",
          "type": "address"
        },
        {
          "indexed": false,
          "internalType": "uint256",
          "name": "timestamp",
          "type": "uint256"
        },
        {
          "indexed": false,
          "internalType": "string",
          "name": "message",
          "type": "string"
        }
      ],
      "name": "NewWave",
      "type": "event"
    },
    {
      "inputs": [],
      "name": "getAllWaves",
      "outputs": [
        {
          "components": [
            {
              "internalType": "address",
              "name": "waver",
              "type": "address"
            },
            {
              "internalType": "string",
              "name": "message",
              "type": "string"
            },
            {
              "internalType": "uint256",
              "name": "timestamp",
              "type": "uint256"
            }
          ],
          "internalType": "struct WavePortal.Wave[]",
          "name": "",
          "type": "tuple[]"
        }
      ],
      "stateMutability": "view",
      "type": "function"
    },
    {
      "inputs": [
        {
          "internalType": "address",
          "name": "sender",
          "type": "address"
        }
      ],
      "name": "getCurrentWaveCountBySender",
      "outputs": [
        {
          "internalType": "uint256",
          "name": "",
          "type": "uint256"
        }
      ],
      "stateMutability": "view",
      "type": "function"
    },
    {
      "inputs": [],
      "name": "getTotalWaves",
      "outputs": [
        {
          "internalType": "uint256",
          "name": "",
          "type": "uint256"
        }
      ],
      "stateMutability": "view",
      "type": "function"
    },
    {
      "inputs": [
        {
          "internalType": "string",
          "name": "_message",
          "type": "string"
        }
      ],
      "name": "wave",
      "outputs": [],
      "stateMutability": "nonpayable",
      "type": "function"
    },
    {
      "inputs": [
        {
          "internalType": "address",
          "name": "",
          "type": "address"
        }
      ],
      "name": "wavesTrackerByAddress",
      "outputs": [
        {
          "internalType": "uint256",
          "name": "",
          "type": "uint256"
        }
      ],
      "stateMutability": "view",
      "type": "function"
    }
  ],
  "bytecode": "0x60806040523480156200001157600080fd5b506200004160405180606001604052806021815260200162001108602191396200004760201b620005ce1760201c565b620001db565b620000e7816040516024016200005e919062000154565b6040516020818303038152906040527f41304fac000000000000000000000000000000000000000000000000000000007bffffffffffffffffffffffffffffffffffffffffffffffffffffffff19166020820180517bffffffffffffffffffffffffffffffffffffffffffffffffffffffff8381831617835250505050620000ea60201b60201c565b50565b60008151905060006a636f6e736f6c652e6c6f679050602083016000808483855afa5050505050565b6000620001208262000178565b6200012c818562000183565b93506200013e81856020860162000194565b6200014981620001ca565b840191505092915050565b6000602082019050818103600083015262000170818462000113565b905092915050565b600081519050919050565b600082825260208201905092915050565b60005b83811015620001b457808201518184015260208101905062000197565b83811115620001c4576000848401525b50505050565b6000601f19601f8301169050919050565b610f1d80620001eb6000396000f3fe608060405234801561001057600080fd5b50600436106100575760003560e01c8063449d46c01461005c5780637e9e78ee146100785780639a2cdc08146100a8578063bd43a908146100c6578063d5052615146100e4575b600080fd5b61007660048036038101906100719190610995565b610114565b005b610092600480360381019061008d919061096c565b6103ee565b60405161009f9190610c85565b60405180910390f35b6100b0610406565b6040516100bd9190610c85565b60405180910390f35b6100ce610434565b6040516100db9190610b8e565b60405180910390f35b6100fe60048036038101906100f9919061096c565b610585565b60405161010b9190610c85565b60405180910390f35b60016000808282546101269190610d38565b925050819055506101b16040518060400160405280601681526020017f257320776176656420772f206d657373616765202573000000000000000000008152503384848080601f016020809104026020016040519081016040528093929190818152602001838380828437600081840152601f19601f82011690508083019250505050505050610667565b600260405180606001604052803373ffffffffffffffffffffffffffffffffffffffff16815260200184848080601f016020809104026020016040519081016040528093929190818152602001838380828437600081840152601f19601f82011690508083019250505050505050815260200142815250908060018154018082558091505060019003906000526020600020906003020160009091909190915060008201518160000160006101000a81548173ffffffffffffffffffffffffffffffffffffffff021916908373ffffffffffffffffffffffffffffffffffffffff16021790555060208201518160010190805190602001906102b492919061086a565b506040820151816002015550503373ffffffffffffffffffffffffffffffffffffffff167f5f7e16dc676677766a70e9c5628aa6c54ddb8b6e5188e2ae1e1f17f1ffbea71642848460405161030b93929190610ca0565b60405180910390a2600161031e33610585565b6103289190610d38565b600160003373ffffffffffffffffffffffffffffffffffffffff1673ffffffffffffffffffffffffffffffffffffffff168152602001908152602001600020819055506103ea6040518060400160405280601d81526020017f25732068617320746f74616c6c792077617665642025732074696d657300000081525033600160003373ffffffffffffffffffffffffffffffffffffffff1673ffffffffffffffffffffffffffffffffffffffff16815260200190815260200160002054610706565b5050565b60016020528060005260406000206000915090505481565b600061042c604051806060016040528060238152602001610ec5602391396000546107a5565b600054905090565b60606002805480602002602001604051908101604052809291908181526020016000905b8282101561057c57838290600052602060002090600302016040518060600160405290816000820160009054906101000a900473ffffffffffffffffffffffffffffffffffffffff1673ffffffffffffffffffffffffffffffffffffffff1673ffffffffffffffffffffffffffffffffffffffff1681526020016001820180546104e190610e0c565b80601f016020809104026020016040519081016040528092919081815260200182805461050d90610e0c565b801561055a5780601f1061052f5761010080835404028352916020019161055a565b820191906000526020600020905b81548152906001019060200180831161053d57829003601f168201915b5050505050815260200160028201548152505081526020019060010190610458565b50505050905090565b6000600160008373ffffffffffffffffffffffffffffffffffffffff1673ffffffffffffffffffffffffffffffffffffffff168152602001908152602001600020549050919050565b610664816040516024016105e29190610bb0565b6040516020818303038152906040527f41304fac000000000000000000000000000000000000000000000000000000007bffffffffffffffffffffffffffffffffffffffffffffffffffffffff19166020820180517bffffffffffffffffffffffffffffffffffffffffffffffffffffffff8381831617835250505050610841565b50565b61070183838360405160240161067f93929190610bd2565b6040516020818303038152906040527fe0e9ad4f000000000000000000000000000000000000000000000000000000007bffffffffffffffffffffffffffffffffffffffffffffffffffffffff19166020820180517bffffffffffffffffffffffffffffffffffffffffffffffffffffffff8381831617835250505050610841565b505050565b6107a083838360405160240161071e93929190610c17565b6040516020818303038152906040527f07c81217000000000000000000000000000000000000000000000000000000007bffffffffffffffffffffffffffffffffffffffffffffffffffffffff19166020820180517bffffffffffffffffffffffffffffffffffffffffffffffffffffffff8381831617835250505050610841565b505050565b61083d82826040516024016107bb929190610c55565b6040516020818303038152906040527f9710a9d0000000000000000000000000000000000000000000000000000000007bffffffffffffffffffffffffffffffffffffffffffffffffffffffff19166020820180517bffffffffffffffffffffffffffffffffffffffffffffffffffffffff8381831617835250505050610841565b5050565b60008151905060006a636f6e736f6c652e6c6f679050602083016000808483855afa5050505050565b82805461087690610e0c565b90600052602060002090601f01602090048101928261089857600085556108df565b82601f106108b157805160ff19168380011785556108df565b828001600101855582156108df579182015b828111156108de5782518255916020019190600101906108c3565b5b5090506108ec91906108f0565b5090565b5b808211156109095760008160009055506001016108f1565b5090565b60008135905061091c81610ead565b92915050565b60008083601f84011261093457600080fd5b8235905067ffffffffffffffff81111561094d57600080fd5b60208301915083600182028301111561096557600080fd5b9250929050565b60006020828403121561097e57600080fd5b600061098c8482850161090d565b91505092915050565b600080602083850312156109a857600080fd5b600083013567ffffffffffffffff8111156109c257600080fd5b6109ce85828601610922565b92509250509250929050565b60006109e68383610b20565b905092915050565b6109f781610d8e565b82525050565b610a0681610d8e565b82525050565b6000610a1782610ce2565b610a218185610d05565b935083602082028501610a3385610cd2565b8060005b85811015610a6f5784840389528151610a5085826109da565b9450610a5b83610cf8565b925060208a01995050600181019050610a37565b50829750879550505050505092915050565b6000610a8d8385610d27565b9350610a9a838584610dca565b610aa383610e9c565b840190509392505050565b6000610ab982610ced565b610ac38185610d16565b9350610ad3818560208601610dd9565b610adc81610e9c565b840191505092915050565b6000610af282610ced565b610afc8185610d27565b9350610b0c818560208601610dd9565b610b1581610e9c565b840191505092915050565b6000606083016000830151610b3860008601826109ee565b5060208301518482036020860152610b508282610aae565b9150506040830151610b656040860182610b70565b508091505092915050565b610b7981610dc0565b82525050565b610b8881610dc0565b82525050565b60006020820190508181036000830152610ba88184610a0c565b905092915050565b60006020820190508181036000830152610bca8184610ae7565b905092915050565b60006060820190508181036000830152610bec8186610ae7565b9050610bfb60208301856109fd565b8181036040830152610c0d8184610ae7565b9050949350505050565b60006060820190508181036000830152610c318186610ae7565b9050610c4060208301856109fd565b610c4d6040830184610b7f565b949350505050565b60006040820190508181036000830152610c6f8185610ae7565b9050610c7e6020830184610b7f565b9392505050565b6000602082019050610c9a6000830184610b7f565b92915050565b6000604082019050610cb56000830186610b7f565b8181036020830152610cc8818486610a81565b9050949350505050565b6000819050602082019050919050565b600081519050919050565b600081519050919050565b6000602082019050919050565b600082825260208201905092915050565b600082825260208201905092915050565b600082825260208201905092915050565b6000610d4382610dc0565b9150610d4e83610dc0565b9250827fffffffffffffffffffffffffffffffffffffffffffffffffffffffffffffffff03821115610d8357610d82610e3e565b5b828201905092915050565b6000610d9982610da0565b9050919050565b600073ffffffffffffffffffffffffffffffffffffffff82169050919050565b6000819050919050565b82818337600083830152505050565b60005b83811015610df7578082015181840152602081019050610ddc565b83811115610e06576000848401525b50505050565b60006002820490506001821680610e2457607f821691505b60208210811415610e3857610e37610e6d565b5b50919050565b7f4e487b7100000000000000000000000000000000000000000000000000000000600052601160045260246000fd5b7f4e487b7100000000000000000000000000000000000000000000000000000000600052602260045260246000fd5b6000601f19601f8301169050919050565b610eb681610d8e565b8114610ec157600080fd5b5056fe746f74616c206e756d626572206f662070656f706c652077617665642069733a202573a26469706673582212201a2d82110722b9e7ce6d9ee7fb40c1566e4c6226967d2d6c3786ffd49bbc3c7264736f6c634300080400334920616d20616e20656d7074792077617665706f7274616c20636f6e7472616374",
  "linkReferences": {},
  "deployedLinkReferences": {}
}